:020000040000FA
:0400000007EF00F016
:100008000D827BED00F08DEF00F08D908D92620EE9
:10001800086E660EE82EFED7082EFCD7030E836EF8
:100028008D828D92210E086E760EE82EFED7082E50
:10003800FCD700D08D828D92C80E00D0E82EFDD757
:100048008D828D92C80E00D0E82EFDD7020E836EE9
:100058008D828D92380E9CEC00F0060E9CEC00F020
:100068000C0E9CEC00F0B8EC00F0120064EC00F010
:10007800000E836E000E846E09EC00F0B8EC00F000
:100088008190819481800D0E0A6EAF0E096EB60EB6
:10009800E82EFED7092EFCD70A2EFAD700D0819079
:1000A8000D0E0A6EAF0E096EB60EE82EFED7092E9B
:1000B800FCD70A2EFAD700D046EF00F007EF00F081
:1000C800DF0E926EFA0E936E9468000E956E0C0E0B
:1000D800966ED08EC00EF26E9D8A9F8A240EAC6EEC
:1000E800900EAB6E000EB86E810EAF6E1200060059
:1000F8009EAA81EF00F083EF00F08BEF00F0AECF07
:1001080004F00450C4EC00F09E9A0CC0ADFF0D92B0
:100118001100940EF66E010EF76E000EF86E0900CF
:10012800F5CF0CF00B6A0D900D9200013AEF00F03C
:10013800066E070E056E7D0EE82EFED7052EFCD73F
:1001480000F006C083FF8D828D921200026E070EAA
:10015800016E7D0EE82EFED7012EFCD700F002C0FE
:1001680083FF8D828D9212008D90010E9CEC00F021
:100178000D0E076EFC0EE82EFED7072EFCD71200D8
:0D018800036E8D800350AAEC00F0120048B9
:020000040020DA
:08000000FFFFFFFFFFFFFFFF00
:020000040030CA
:0E000000040C181EFF0081FF0FC00FE00F4020
:00000001FF
